{
  "_format": "hh3-artifact-1",
  "contractName": "HotelBooking",
  "sourceName": "contracts/HotelBooking.sol",
  "abi": [
    {
      "inputs": [],
      "stateMutability": "nonpayable",
      "type": "constructor"
    },
    {
      "anonymous": false,
      "inputs": [
        {
          "indexed": true,
          "internalType": "uint256",
          "name": "bookingId",
          "type": "uint256"
        },
        {
          "indexed": true,
          "internalType": "address",
          "name": "guestWallet",
          "type": "address"
        },
        {
          "indexed": false,
          "internalType": "uint256",
          "name": "cancelledAt",
          "type": "uint256"
        }
      ],
      "name": "BookingCancelled",
      "type": "event"
    },
    {
      "anonymous": false,
      "inputs": [
        {
          "indexed": true,
          "internalType": "uint256",
          "name": "bookingId",
          "type": "uint256"
        },
        {
          "indexed": true,
          "internalType": "uint256",
          "name": "roomId",
          "type": "uint256"
        },
        {
          "indexed": true,
          "internalType": "address",
          "name": "guestWallet",
          "type": "address"
        },
        {
          "indexed": false,
          "internalType": "uint256",
          "name": "totalPrice",
          "type": "uint256"
        },
        {
          "indexed": false,
          "internalType": "string",
          "name": "bookingRef",
          "type": "string"
        }
      ],
      "name": "RoomBooked",
      "type": "event"
    },
    {
      "inputs": [
        {
          "internalType": "uint256",
          "name": "roomId",
          "type": "uint256"
        },
        {
          "internalType": "uint256",
          "name": "checkIn",
          "type": "uint256"
        },
        {
          "internalType": "uint256",
          "name": "checkOut",
          "type": "uint256"
        },
        {
          "internalType": "uint256",
          "name": "guests",
          "type": "uint256"
        },
        {
          "internalType": "string",
          "name": "bookingRef",
          "type": "string"
        }
      ],
      "name": "bookRoom",
      "outputs": [
        {
          "internalType": "uint256",
          "name": "",
          "type": "uint256"
        }
      ],
      "stateMutability": "payable",
      "type": "function"
    },
    {
      "inputs": [],
      "name": "bookingCount",
      "outputs": [
        {
          "internalType": "uint256",
          "name": "",
          "type": "uint256"
        }
      ],
      "stateMutability": "view",
      "type": "function"
    },
    {
      "inputs": [
        {
          "internalType": "uint256",
          "name": "",
          "type": "uint256"
        }
      ],
      "name": "bookings",
      "outputs": [
        {
          "internalType": "uint256",
          "name": "bookingId",
          "type": "uint256"
        },
        {
          "internalType": "uint256",
          "name": "roomId",
          "type": "uint256"
        },
        {
          "internalType": "uint256",
          "name": "totalPrice",
          "type": "uint256"
        },
        {
          "internalType": "uint256",
          "name": "checkIn",
          "type": "uint256"
        },
        {
          "internalType": "uint256",
          "name": "checkOut",
          "type": "uint256"
        },
        {
          "internalType": "uint256",
          "name": "guests",
          "type": "uint256"
        },
        {
          "internalType": "address",
          "name": "guestWallet",
          "type": "address"
        },
        {
          "internalType": "bool",
          "name": "active",
          "type": "bool"
        },
        {
          "internalType": "uint256",
          "name": "createdAt",
          "type": "uint256"
        },
        {
          "internalType": "string",
          "name": "bookingRef",
          "type": "string"
        }
      ],
      "stateMutability": "view",
      "type": "function"
    },
    {
      "inputs": [
        {
          "internalType": "uint256",
          "name": "bookingId",
          "type": "uint256"
        }
      ],
      "name": "cancelBooking",
      "outputs": [],
      "stateMutability": "nonpayable",
      "type": "function"
    },
    {
      "inputs": [
        {
          "internalType": "uint256",
          "name": "bookingId",
          "type": "uint256"
        }
      ],
      "name": "getBooking",
      "outputs": [
        {
          "components": [
            {
              "internalType": "uint256",
              "name": "bookingId",
              "type": "uint256"
            },
            {
              "internalType": "uint256",
              "name": "roomId",
              "type": "uint256"
            },
            {
              "internalType": "uint256",
              "name": "totalPrice",
              "type": "uint256"
            },
            {
              "internalType": "uint256",
              "name": "checkIn",
              "type": "uint256"
            },
            {
              "internalType": "uint256",
              "name": "checkOut",
              "type": "uint256"
            },
            {
              "internalType": "uint256",
              "name": "guests",
              "type": "uint256"
            },
            {
              "internalType": "address",
              "name": "guestWallet",
              "type": "address"
            },
            {
              "internalType": "bool",
              "name": "active",
              "type": "bool"
            },
            {
              "internalType": "uint256",
              "name": "createdAt",
              "type": "uint256"
            },
            {
              "internalType": "string",
              "name": "bookingRef",
              "type": "string"
            }
          ],
          "internalType": "struct HotelBooking.Booking",
          "name": "",
          "type": "tuple"
        }
      ],
      "stateMutability": "view",
      "type": "function"
    },
    {
      "inputs": [],
      "name": "getContractBalance",
      "outputs": [
        {
          "internalType": "uint256",
          "name": "",
          "type": "uint256"
        }
      ],
      "stateMutability": "view",
      "type": "function"
    },
    {
      "inputs": [],
      "name": "getMyBookingIds",
      "outputs": [
        {
          "internalType": "uint256[]",
          "name": "",
          "type": "uint256[]"
        }
      ],
      "stateMutability": "view",
      "type": "function"
    },
    {
      "inputs": [],
      "name": "owner",
      "outputs": [
        {
          "internalType": "address",
          "name": "",
          "type": "address"
        }
      ],
      "stateMutability": "view",
      "type": "function"
    },
    {
      "inputs": [],
      "name": "withdraw",
      "outputs": [],
      "stateMutability": "nonpayable",
      "type": "function"
    }
  ],
  "bytecode": "0x60808060405234610027575f80546001600160a01b03191633179055610c5b908161002c8239f35b5f80fdfe6080806040526004361015610012575f80fd5b5f3560e01c9081630dca825e14610965575080631dab301e146108b95780633ccfd60b146107f35780636a5c841a146106705780636d759172146106535780636f9fb98a146106385780638da5cb5b14610611578063d35987fa146105735763f5329bcb1461007f575f80fd5b60a036600319011261056f5767ffffffffffffffff6084351161056f5736602360843501121561056f5767ffffffffffffffff608435600401351161056f573660246084356004013560843501011161056f576004351561053857602435604435111561050357606435156104be573415610486576084356004013515610441576001545f19811461042d57600181016001556040519061011f82610ac7565b60018101825260043560208301523460408301526024356060830152604435608083015260643560a08301523360c0830152600160e08301524261010083015260016040519161017f6020601f19601f6084356004013501160184610ae4565b60843560048101358085529060240160208501375f602060843560040135850101526101208401928352015f52600260205261010060405f2092805184556020810151600185015560408101516002850155606081015160038501556080810151600485015560a081015160058501556006840160018060a01b0360c08301511681549060ff60a01b60e0850151151560a01b16916affffffffffffffffffffff60a81b1617179055015160078301555180519067ffffffffffffffff821161035a5761024f6008840154610a8f565b601f81116103e5575b50602090601f831160011461037957600892915f918361036e575b50508160011b915f199060031b1c1916179101555b335f52600360205260405f20600154908054906801000000000000000082101561035a5760018201808255821015610346575f5260205f20015560206001546040513481526040838201526084356004013560408201526084356004013560246084350160608301375f606060843560040135830101523390827f561db0ba1dac377816d862da44de54d0510b32c74ed326e7d3db0b8f9f8027c560043592606081601f19601f6084356004013501168101030190a4604051908152f35b634e487b7160e01b5f52603260045260245ffd5b634e487b7160e01b5f52604160045260245ffd5b015190505f80610273565b90600884015f5260205f20915f5b601f19851681106103cd5750918391600193600895601f198116106103b5575b505050811b01910155610288565b01515f1960f88460031b161c191690555f80806103a7565b91926020600181928685015181550194019201610387565b600884015f5260205f20601f840160051c81019160208510610423575b601f0160051c01905b8181106104185750610258565b5f815560010161040b565b9091508190610402565b634e487b7160e01b5f52601160045260245ffd5b60405162461bcd60e51b815260206004820152601a60248201527f426f6f6b696e67207265666572656e63652072657175697265640000000000006044820152606490fd5b60405162461bcd60e51b815260206004820152601060248201526f14185e5b595b9d081c995c5d5a5c995960821b6044820152606490fd5b60405162461bcd60e51b815260206004820152601960248201527f477565737473206d757374206265206174206c656173742031000000000000006044820152606490fd5b60405162461bcd60e51b815260206004820152600d60248201526c496e76616c696420646174657360981b6044820152606490fd5b60405162461bcd60e51b815260206004820152600f60248201526e125b9d985b1a59081c9bdbdb481251608a1b6044820152606490fd5b5f80fd5b3461056f575f36600319011261056f57335f5260206003815260405f20604051908183825491828152019081925f52845f20905f5b868282106105fd5786866105be82880383610ae4565b60405192839281840190828552518091526040840192915f5b8281106105e657505050500390f35b8351855286955093810193928101926001016105d7565b8354855290930192600192830192016105a8565b3461056f575f36600319011261056f575f546040516001600160a01b039091168152602090f35b3461056f575f36600319011261056f57602047604051908152f35b3461056f575f36600319011261056f576020600154604051908152f35b3461056f57602036600319011261056f57600435606061012060405161069581610ac7565b5f81525f60208201525f60408201525f838201525f60808201525f60a08201525f60c08201525f60e08201525f6101008201520152805f5260026020526106e160405f20541515610be5565b5f52600260205261012060405f2061076860086040519261070184610ac7565b8054845260018101546020850152600281015460408501526003810154606085015260048101546080850152600581015460a085015260ff600682015460018060a01b03811660c087015260a01c16151560e0850152600781015461010085015201610b06565b828201526107ef6040519283926020845280516020850152602081015160408501526040810151606085015260608101516080850152608081015160a085015260a081015160c085015260018060a01b0360c08201511660e085015260e0810151151561010085015261010081015182850152015161014080840152610160830190610ba7565b0390f35b3461056f575f36600319011261056f575f546001600160a01b0316338190036108745747908115610838575f808093819382f11561082d57005b6040513d5f823e3d90fd5b60405162461bcd60e51b81526020600482015260146024820152734e6f2066756e647320746f20776974686472617760601b6044820152606490fd5b60405162461bcd60e51b815260206004820152601860248201527f4f6e6c79206f776e65722063616e2063616c6c207468697300000000000000006044820152606490fd5b3461056f57602036600319011261056f576004355f52600260205260405f2080546107ef60018301549260028101549060ff60038201546004830154600584015490600685015492610912600860078801549701610b06565b966040519a8b9a8b5260208b015260408a01526060890152608088015260a087015260018060a01b03811660c087015260a01c16151560e085015261010084015261014080610120850152830190610ba7565b3461056f576020908160031936011261056f576004355f8181526002845260409020600601549091906001600160a01b03163303610a5a5750805f52600282526109b460405f20541515610be5565b805f526002825260ff600660405f20015460a01c1615610a15575f81815260028352604090819020600601805460ff60a01b191690555142815233927f1b6cb622ce03beaf3e0c44cb4253af7c70bb84b7e3711229b33cc2ec4c613c8e91a3005b60405162461bcd60e51b815260048101839052601960248201527f426f6f6b696e6720616c72656164792063616e63656c6c6564000000000000006044820152606490fd5b62461bcd60e51b815260048101839052601060248201526f4e6f7420796f757220626f6f6b696e6760801b6044820152606490fd5b90600182811c92168015610abd575b6020831014610aa957565b634e487b7160e01b5f52602260045260245ffd5b91607f1691610a9e565b610140810190811067ffffffffffffffff82111761035a57604052565b90601f8019910116810190811067ffffffffffffffff82111761035a57604052565b9060405191825f825492610b1984610a8f565b9081845260019485811690815f14610b845750600114610b44575b5050610b4292500383610ae4565b565b909391505f52602090815f20935f915b818310610b6c575050610b4293508201015f80610b34565b85548884018501529485019487945091830191610b54565b915050610b4294506020925060ff191682840152151560051b8201015f80610b34565b91908251928382525f5b848110610bd1575050825f602080949584010152601f8019910116010190565b602081830181015184830182015201610bb1565b15610bec57565b60405162461bcd60e51b8152602060048201526011602482015270109bdbdada5b99c81b9bdd08199bdd5b99607a1b6044820152606490fdfea264697066735822122085990187c1e670cfe473557596e3cb5fc46193104920c67b9b1fb1c7317947a264736f6c63430008140033",
  "linkReferences": {},
  "deployedLinkReferences": {},
  "immutableReferences": {},
  "inputSourceName": "project/contracts/HotelBooking.sol",
  "buildInfoId": "solc-0_8_20-66d0aab3ddc963e90296bca29ed77bb35b00043c"
}