{"project/contracts/HotelBooking.sol":{"HotelBooking":{"abi":[{"inputs":[],"stateMutability":"nonpayable","type":"constructor"},{"anonymous":false,"inputs":[{"indexed":true,"internalType":"uint256","name":"bookingId","type":"uint256"},{"indexed":true,"internalType":"address","name":"guestWallet","type":"address"},{"indexed":false,"internalType":"uint256","name":"cancelledAt","type":"uint256"}],"name":"BookingCancelled","type":"event"},{"anonymous":false,"inputs":[{"indexed":true,"internalType":"uint256","name":"bookingId","type":"uint256"},{"indexed":true,"internalType":"uint256","name":"roomId","type":"uint256"},{"indexed":true,"internalType":"address","name":"guestWallet","type":"address"},{"indexed":false,"internalType":"uint256","name":"totalPrice","type":"uint256"},{"indexed":false,"internalType":"string","name":"bookingRef","type":"string"}],"name":"RoomBooked","type":"event"},{"inputs":[{"internalType":"uint256","name":"roomId","type":"uint256"},{"internalType":"uint256","name":"checkIn","type":"uint256"},{"internalType":"uint256","name":"checkOut","type":"uint256"},{"internalType":"uint256","name":"guests","type":"uint256"},{"internalType":"string","name":"bookingRef","type":"string"}],"name":"bookRoom","outputs":[{"internalType":"uint256","name":"","type":"uint256"}],"stateMutability":"payable","type":"function"},{"inputs":[],"name":"bookingCount","outputs":[{"internalType":"uint256","name":"","type":"uint256"}],"stateMutability":"view","type":"function"},{"inputs":[{"internalType":"uint256","name":"","type":"uint256"}],"name":"bookings","outputs":[{"internalType":"uint256","name":"bookingId","type":"uint256"},{"internalType":"uint256","name":"roomId","type":"uint256"},{"internalType":"uint256","name":"totalPrice","type":"uint256"},{"internalType":"uint256","name":"checkIn","type":"uint256"},{"internalType":"uint256","name":"checkOut","type":"uint256"},{"internalType":"uint256","name":"guests","type":"uint256"},{"internalType":"address","name":"guestWallet","type":"address"},{"internalType":"bool","name":"active","type":"bool"},{"internalType":"uint256","name":"createdAt","type":"uint256"},{"internalType":"string","name":"bookingRef","type":"string"}],"stateMutability":"view","type":"function"},{"inputs":[{"internalType":"uint256","name":"bookingId","type":"uint256"}],"name":"cancelBooking","outputs":[],"stateMutability":"nonpayable","type":"function"},{"inputs":[{"internalType":"uint256","name":"bookingId","type":"uint256"}],"name":"getBooking","outputs":[{"components":[{"internalType":"uint256","name":"bookingId","type":"uint256"},{"internalType":"uint256","name":"roomId","type":"uint256"},{"internalType":"uint256","name":"totalPrice","type":"uint256"},{"internalType":"uint256","name":"checkIn","type":"uint256"},{"internalType":"uint256","name":"checkOut","type":"uint256"},{"internalType":"uint256","name":"guests","type":"uint256"},{"internalType":"address","name":"guestWallet","type":"address"},{"internalType":"bool","name":"active","type":"bool"},{"internalType":"uint256","name":"createdAt","type":"uint256"},{"internalType":"string","name":"bookingRef","type":"string"}],"internalType":"struct HotelBooking.Booking","name":"","type":"tuple"}],"stateMutability":"view","type":"function"},{"inputs":[],"name":"getContractBalance","outputs":[{"internalType":"uint256","name":"","type":"uint256"}],"stateMutability":"view","type":"function"},{"inputs":[],"name":"getMyBookingIds","outputs":[{"internalType":"uint256[]","name":"","type":"uint256[]"}],"stateMutability":"view","type":"function"},{"inputs":[],"name":"owner","outputs":[{"internalType":"address","name":"","type":"address"}],"stateMutability":"view","type":"function"},{"inputs":[],"name":"withdraw","outputs":[],"stateMutability":"nonpayable","type":"function"}],"evm":{"bytecode":{"linkReferences":{},"object":"60808060405234610027575f80546001600160a01b03191633179055610c5b908161002c8239f35b5f80fdfe6080806040526004361015610012575f80fd5b5f3560e01c9081630dca825e14610965575080631dab301e146108b95780633ccfd60b146107f35780636a5c841a146106705780636d759172146106535780636f9fb98a146106385780638da5cb5b14610611578063d35987fa146105735763f5329bcb1461007f575f80fd5b60a036600319011261056f5767ffffffffffffffff6084351161056f5736602360843501121561056f5767ffffffffffffffff608435600401351161056f573660246084356004013560843501011161056f576004351561053857602435604435111561050357606435156104be573415610486576084356004013515610441576001545f19811461042d57600181016001556040519061011f82610ac7565b60018101825260043560208301523460408301526024356060830152604435608083015260643560a08301523360c0830152600160e08301524261010083015260016040519161017f6020601f19601f6084356004013501160184610ae4565b60843560048101358085529060240160208501375f602060843560040135850101526101208401928352015f52600260205261010060405f2092805184556020810151600185015560408101516002850155606081015160038501556080810151600485015560a081015160058501556006840160018060a01b0360c08301511681549060ff60a01b60e0850151151560a01b16916affffffffffffffffffffff60a81b1617179055015160078301555180519067ffffffffffffffff821161035a5761024f6008840154610a8f565b601f81116103e5575b50602090601f831160011461037957600892915f918361036e575b50508160011b915f199060031b1c1916179101555b335f52600360205260405f20600154908054906801000000000000000082101561035a5760018201808255821015610346575f5260205f20015560206001546040513481526040838201526084356004013560408201526084356004013560246084350160608301375f606060843560040135830101523390827f561db0ba1dac377816d862da44de54d0510b32c74ed326e7d3db0b8f9f8027c560043592606081601f19601f6084356004013501168101030190a4604051908152f35b634e487b7160e01b5f52603260045260245ffd5b634e487b7160e01b5f52604160045260245ffd5b015190505f80610273565b90600884015f5260205f20915f5b601f19851681106103cd5750918391600193600895601f198116106103b5575b505050811b01910155610288565b01515f1960f88460031b161c191690555f80806103a7565b91926020600181928685015181550194019201610387565b600884015f5260205f20601f840160051c81019160208510610423575b601f0160051c01905b8181106104185750610258565b5f815560010161040b565b9091508190610402565b634e487b7160e01b5f52601160045260245ffd5b60405162461bcd60e51b815260206004820152601a60248201527f426f6f6b696e67207265666572656e63652072657175697265640000000000006044820152606490fd5b60405162461bcd60e51b815260206004820152601060248201526f14185e5b595b9d081c995c5d5a5c995960821b6044820152606490fd5b60405162461bcd60e51b815260206004820152601960248201527f477565737473206d757374206265206174206c656173742031000000000000006044820152606490fd5b60405162461bcd60e51b815260206004820152600d60248201526c496e76616c696420646174657360981b6044820152606490fd5b60405162461bcd60e51b815260206004820152600f60248201526e125b9d985b1a59081c9bdbdb481251608a1b6044820152606490fd5b5f80fd5b3461056f575f36600319011261056f57335f5260206003815260405f20604051908183825491828152019081925f52845f20905f5b868282106105fd5786866105be82880383610ae4565b60405192839281840190828552518091526040840192915f5b8281106105e657505050500390f35b8351855286955093810193928101926001016105d7565b8354855290930192600192830192016105a8565b3461056f575f36600319011261056f575f546040516001600160a01b039091168152602090f35b3461056f575f36600319011261056f57602047604051908152f35b3461056f575f36600319011261056f576020600154604051908152f35b3461056f57602036600319011261056f57600435606061012060405161069581610ac7565b5f81525f60208201525f60408201525f838201525f60808201525f60a08201525f60c08201525f60e08201525f6101008201520152805f5260026020526106e160405f20541515610be5565b5f52600260205261012060405f2061076860086040519261070184610ac7565b8054845260018101546020850152600281015460408501526003810154606085015260048101546080850152600581015460a085015260ff600682015460018060a01b03811660c087015260a01c16151560e0850152600781015461010085015201610b06565b828201526107ef6040519283926020845280516020850152602081015160408501526040810151606085015260608101516080850152608081015160a085015260a081015160c085015260018060a01b0360c08201511660e085015260e0810151151561010085015261010081015182850152015161014080840152610160830190610ba7565b0390f35b3461056f575f36600319011261056f575f546001600160a01b0316338190036108745747908115610838575f808093819382f11561082d57005b6040513d5f823e3d90fd5b60405162461bcd60e51b81526020600482015260146024820152734e6f2066756e647320746f20776974686472617760601b6044820152606490fd5b60405162461bcd60e51b815260206004820152601860248201527f4f6e6c79206f776e65722063616e2063616c6c207468697300000000000000006044820152606490fd5b3461056f57602036600319011261056f576004355f52600260205260405f2080546107ef60018301549260028101549060ff60038201546004830154600584015490600685015492610912600860078801549701610b06565b966040519a8b9a8b5260208b015260408a01526060890152608088015260a087015260018060a01b03811660c087015260a01c16151560e085015261010084015261014080610120850152830190610ba7565b3461056f576020908160031936011261056f576004355f8181526002845260409020600601549091906001600160a01b03163303610a5a5750805f52600282526109b460405f20541515610be5565b805f526002825260ff600660405f20015460a01c1615610a15575f81815260028352604090819020600601805460ff60a01b191690555142815233927f1b6cb622ce03beaf3e0c44cb4253af7c70bb84b7e3711229b33cc2ec4c613c8e91a3005b60405162461bcd60e51b815260048101839052601960248201527f426f6f6b696e6720616c72656164792063616e63656c6c6564000000000000006044820152606490fd5b62461bcd60e51b815260048101839052601060248201526f4e6f7420796f757220626f6f6b696e6760801b6044820152606490fd5b90600182811c92168015610abd575b6020831014610aa957565b634e487b7160e01b5f52602260045260245ffd5b91607f1691610a9e565b610140810190811067ffffffffffffffff82111761035a57604052565b90601f8019910116810190811067ffffffffffffffff82111761035a57604052565b9060405191825f825492610b1984610a8f565b9081845260019485811690815f14610b845750600114610b44575b5050610b4292500383610ae4565b565b909391505f52602090815f20935f915b818310610b6c575050610b4293508201015f80610b34565b85548884018501529485019487945091830191610b54565b915050610b4294506020925060ff191682840152151560051b8201015f80610b34565b91908251928382525f5b848110610bd1575050825f602080949584010152601f8019910116010190565b602081830181015184830182015201610bb1565b15610bec57565b60405162461bcd60e51b8152602060048201526011602482015270109bdbdada5b99c81b9bdd08199bdd5b99607a1b6044820152606490fdfea264697066735822122085990187c1e670cfe473557596e3cb5fc46193104920c67b9b1fb1c7317947a264736f6c63430008140033","opcodes":"PUSH1 0x80 DUP1 PUSH1 0x40 MSTORE CALLVALUE PUSH2 0x27 JUMPI PUSH0 DUP1 SLOAD PUSH1 0x1 PUSH1 0x1 PUSH1 0xA0 SHL SUB NOT AND CALLER OR SWAP1 SSTORE PUSH2 0xC5B SWAP1 DUP2 PUSH2 0x2C DUP3 CODECOPY RETURN JUMPDEST PUSH0 DUP1 REVERT INVALID PUSH1 0x80 DUP1 PUSH1 0x40 MSTORE PUSH1 0x4 CALLDATASIZE LT ISZERO PUSH2 0x12 JUMPI PUSH0 DUP1 REVERT JUMPDEST PUSH0 CALLDATALOAD PUSH1 0xE0 SHR SWAP1 DUP2 PUSH4 0xDCA825E EQ PUSH2 0x965 JUMPI POP DUP1 PUSH4 0x1DAB301E EQ PUSH2 0x8B9 JUMPI DUP1 PUSH4 0x3CCFD60B EQ PUSH2 0x7F3 JUMPI DUP1 PUSH4 0x6A5C841A EQ PUSH2 0x670 JUMPI DUP1 PUSH4 0x6D759172 EQ PUSH2 0x653 JUMPI DUP1 PUSH4 0x6F9FB98A EQ PUSH2 0x638 JUMPI DUP1 PUSH4 0x8DA5CB5B EQ PUSH2 0x611 JUMPI DUP1 PUSH4 0xD35987FA EQ PUSH2 0x573 JUMPI PUSH4 0xF5329BCB EQ PUSH2 0x7F JUMPI PUSH0 DUP1 REVERT JUMPDEST PUSH1 0xA0 CALLDATASIZE PUSH1 0x3 NOT ADD SLT PUSH2 0x56F JUMPI PUSH8 0xFFFFFFFFFFFFFFFF PUSH1 0x84 CALLDATALOAD GT PUSH2 0x56F JUMPI CALLDATASIZE PUSH1 0x23 PUSH1 0x84 CALLDATALOAD ADD SLT ISZERO PUSH2 0x56F JUMPI PUSH8 0xFFFFFFFFFFFFFFFF PUSH1 0x84 CALLDATALOAD PUSH1 0x4 ADD CALLDATALOAD GT PUSH2 0x56F JUMPI CALLDATASIZE PUSH1 0x24 PUSH1 0x84 CALLDATALOAD PUSH1 0x4 ADD CALLDATALOAD PUSH1 0x84 CALLDATALOAD ADD ADD GT PUSH2 0x56F JUMPI PUSH1 0x4 CALLDATALOAD ISZERO PUSH2 0x538 JUMPI PUSH1 0x24 CALLDATALOAD PUSH1 0x44 CALLDATALOAD GT ISZERO PUSH2 0x503 JUMPI PUSH1 0x64 CALLDATALOAD ISZERO PUSH2 0x4BE JUMPI CALLVALUE ISZERO PUSH2 0x486 JUMPI PUSH1 0x84 CALLDATALOAD PUSH1 0x4 ADD CALLDATALOAD ISZERO PUSH2 0x441 JUMPI PUSH1 0x1 SLOAD PUSH0 NOT DUP2 EQ PUSH2 0x42D JUMPI PUSH1 0x1 DUP2 ADD PUSH1 0x1 SSTORE PUSH1 0x40 MLOAD SWAP1 PUSH2 0x11F DUP3 PUSH2 0xAC7 JUMP JUMPDEST PUSH1 0x1 DUP2 ADD DUP3 MSTORE PUSH1 0x4 CALLDATALOAD PUSH1 0x20 DUP4 ADD MSTORE CALLVALUE PUSH1 0x40 DUP4 ADD MSTORE PUSH1 0x24 CALLDATALOAD PUSH1 0x60 DUP4 ADD MSTORE PUSH1 0x44 CALLDATALOAD PUSH1 0x80 DUP4 ADD MSTORE PUSH1 0x64 CALLDATALOAD PUSH1 0xA0 DUP4 ADD MSTORE CALLER PUSH1 0xC0 DUP4 ADD MSTORE PUSH1 0x1 PUSH1 0xE0 DUP4 ADD MSTORE TIMESTAMP PUSH2 0x100 DUP4 ADD MSTORE PUSH1 0x1 PUSH1 0x40 MLOAD SWAP2 PUSH2 0x17F PUSH1 0x20 PUSH1 0x1F NOT PUSH1 0x1F PUSH1 0x84 CALLDATALOAD PUSH1 0x4 ADD CALLDATALOAD ADD AND ADD DUP5 PUSH2 0xAE4 JUMP JUMPDEST PUSH1 0x84 CALLDATALOAD PUSH1 0x4 DUP2 ADD CALLDATALOAD DUP1 DUP6 MSTORE SWAP1 PUSH1 0x24 ADD PUSH1 0x20 DUP6 ADD CALLDATACOPY PUSH0 PUSH1 0x20 PUSH1 0x84 CALLDATALOAD PUSH1 0x4 ADD CALLDATALOAD DUP6 ADD ADD MSTORE PUSH2 0x120 DUP5 ADD SWAP3 DUP4 MSTORE ADD PUSH0 MSTORE PUSH1 0x2 PUSH1 0x20 MSTORE PUSH2 0x100 PUSH1 0x40 PUSH0 KECCAK256 SWAP3 DUP1 MLOAD DUP5 SSTORE PUSH1 0x20 DUP2 ADD MLOAD PUSH1 0x1 DUP6 ADD SSTORE PUSH1 0x40 DUP2 ADD MLOAD PUSH1 0x2 DUP6 ADD SSTORE PUSH1 0x60 DUP2 ADD MLOAD PUSH1 0x3 DUP6 ADD SSTORE PUSH1 0x80 DUP2 ADD MLOAD PUSH1 0x4 DUP6 ADD SSTORE PUSH1 0xA0 DUP2 ADD MLOAD PUSH1 0x5 DUP6 ADD SSTORE PUSH1 0x6 DUP5 ADD PUSH1 0x1 DUP1 PUSH1 0xA0 SHL SUB PUSH1 0xC0 DUP4 ADD MLOAD AND DUP2 SLOAD SWAP1 PUSH1 0xFF PUSH1 0xA0 SHL PUSH1 0xE0 DUP6 ADD MLOAD ISZERO ISZERO PUSH1 0xA0 SHL AND SWAP2 PUSH11 0xFFFFFFFFFFFFFFFFFFFFFF PUSH1 0xA8 SHL AND OR OR SWAP1 SSTORE ADD MLOAD PUSH1 0x7 DUP4 ADD SSTORE MLOAD DUP1 MLOAD SWAP1 PUSH8 0xFFFFFFFFFFFFFFFF DUP3 GT PUSH2 0x35A JUMPI PUSH2 0x24F PUSH1 0x8 DUP5 ADD SLOAD PUSH2 0xA8F JUMP JUMPDEST PUSH1 0x1F DUP2 GT PUSH2 0x3E5 JUMPI JUMPDEST POP PUSH1 0x20 SWAP1 PUSH1 0x1F DUP4 GT PUSH1 0x1 EQ PUSH2 0x379 JUMPI PUSH1 0x8 SWAP3 SWAP2 PUSH0 SWAP2 DUP4 PUSH2 0x36E JUMPI JUMPDEST POP POP DUP2 PUSH1 0x1 SHL SWAP2 PUSH0 NOT SWAP1 PUSH1 0x3 SHL SHR NOT AND OR SWAP2 ADD SSTORE JUMPDEST CALLER PUSH0 MSTORE PUSH1 0x3 PUSH1 0x20 MSTORE PUSH1 0x40 PUSH0 KECCAK256 PUSH1 0x1 SLOAD SWAP1 DUP1 SLOAD SWAP1 PUSH9 0x10000000000000000 DUP3 LT ISZERO PUSH2 0x35A JUMPI PUSH1 0x1 DUP3 ADD DUP1 DUP3 SSTORE DUP3 LT ISZERO PUSH2 0x346 JUMPI PUSH0 MSTORE PUSH1 0x20 PUSH0 KECCAK256 ADD SSTORE PUSH1 0x20 PUSH1 0x1 SLOAD PUSH1 0x40 MLOAD CALLVALUE DUP2 MSTORE PUSH1 0x40 DUP4 DUP3 ADD MSTORE PUSH1 0x84 CALLDATALOAD PUSH1 0x4 ADD CALLDATALOAD PUSH1 0x40 DUP3 ADD MSTORE PUSH1 0x84 CALLDATALOAD PUSH1 0x4 ADD CALLDATALOAD PUSH1 0x24 PUSH1 0x84 CALLDATALOAD ADD PUSH1 0x60 DUP4 ADD CALLDATACOPY PUSH0 PUSH1 0x60 PUSH1 0x84 CALLDATALOAD PUSH1 0x4 ADD CALLDATALOAD DUP4 ADD ADD MSTORE CALLER SWAP1 DUP3 PUSH32 0x561DB0BA1DAC377816D862DA44DE54D0510B32C74ED326E7D3DB0B8F9F8027C5 PUSH1 0x4 CALLDATALOAD SWAP3 PUSH1 0x60 DUP2 PUSH1 0x1F NOT PUSH1 0x1F PUSH1 0x84 CALLDATALOAD PUSH1 0x4 ADD CALLDATALOAD ADD AND DUP2 ADD SUB ADD SWAP1 LOG4 PUSH1 0x40 MLOAD SWAP1 DUP2 MSTORE RETURN JUMPDEST PUSH4 0x4E487B71 PUSH1 0xE0 SHL PUSH0 MSTORE PUSH1 0x32 PUSH1 0x4 MSTORE PUSH1 0x24 PUSH0 REVERT JUMPDEST PUSH4 0x4E487B71 PUSH1 0xE0 SHL PUSH0 MSTORE PUSH1 0x41 PUSH1 0x4 MSTORE PUSH1 0x24 PUSH0 REVERT JUMPDEST ADD MLOAD SWAP1 POP PUSH0 DUP1 PUSH2 0x273 JUMP JUMPDEST SWAP1 PUSH1 0x8 DUP5 ADD PUSH0 MSTORE PUSH1 0x20 PUSH0 KECCAK256 SWAP2 PUSH0 JUMPDEST PUSH1 0x1F NOT DUP6 AND DUP2 LT PUSH2 0x3CD JUMPI POP SWAP2 DUP4 SWAP2 PUSH1 0x1 SWAP4 PUSH1 0x8 SWAP6 PUSH1 0x1F NOT DUP2 AND LT PUSH2 0x3B5 JUMPI JUMPDEST POP POP POP DUP2 SHL ADD SWAP2 ADD SSTORE PUSH2 0x288 JUMP JUMPDEST ADD MLOAD PUSH0 NOT PUSH1 0xF8 DUP5 PUSH1 0x3 SHL AND SHR NOT AND SWAP1 SSTORE PUSH0 DUP1 DUP1 PUSH2 0x3A7 JUMP JUMPDEST SWAP2 SWAP3 PUSH1 0x20 PUSH1 0x1 DUP2 SWAP3 DUP7 DUP6 ADD MLOAD DUP2 SSTORE ADD SWAP5 ADD SWAP3 ADD PUSH2 0x387 JUMP JUMPDEST PUSH1 0x8 DUP5 ADD PUSH0 MSTORE PUSH1 0x20 PUSH0 KECCAK256 PUSH1 0x1F DUP5 ADD PUSH1 0x5 SHR DUP2 ADD SWAP2 PUSH1 0x20 DUP6 LT PUSH2 0x423 JUMPI JUMPDEST PUSH1 0x1F ADD PUSH1 0x5 SHR ADD SWAP1 JUMPDEST DUP2 DUP2 LT PUSH2 0x418 JUMPI POP PUSH2 0x258 JUMP JUMPDEST PUSH0 DUP2 SSTORE PUSH1 0x1 ADD PUSH2 0x40B JUMP JUMPDEST SWAP1 SWAP2 POP DUP2 SWAP1 PUSH2 0x402 JUMP JUMPDEST PUSH4 0x4E487B71 PUSH1 0xE0 SHL PUSH0 MSTORE PUSH1 0x11 PUSH1 0x4 MSTORE PUSH1 0x24 PUSH0 REVERT JUMPDEST PUSH1 0x40 MLOAD PUSH3 0x461BCD PUSH1 0xE5 SHL DUP2 MSTORE PUSH1 0x20 PUSH1 0x4 DUP3 ADD MSTORE PUSH1 0x1A PUSH1 0x24 DUP3 ADD MSTORE PUSH32 0x426F6F6B696E67207265666572656E6365207265717569726564000000000000 PUSH1 0x44 DUP3 ADD MSTORE PUSH1 0x64 SWAP1 REVERT JUMPDEST PUSH1 0x40 MLOAD PUSH3 0x461BCD PUSH1 0xE5 SHL DUP2 MSTORE PUSH1 0x20 PUSH1 0x4 DUP3 ADD MSTORE PUSH1 0x10 PUSH1 0x24 DUP3 ADD MSTORE PUSH16 0x14185E5B595B9D081C995C5D5A5C9959 PUSH1 0x82 SHL PUSH1 0x44 DUP3 ADD MSTORE PUSH1 0x64 SWAP1 REVERT JUMPDEST PUSH1 0x40 MLOAD PUSH3 0x461BCD PUSH1 0xE5 SHL DUP2 MSTORE PUSH1 0x20 PUSH1 0x4 DUP3 ADD MSTORE PUSH1 0x19 PUSH1 0x24 DUP3 ADD MSTORE PUSH32 0x477565737473206D757374206265206174206C65617374203100000000000000 PUSH1 0x44 DUP3 ADD MSTORE PUSH1 0x64 SWAP1 REVERT JUMPDEST PUSH1 0x40 MLOAD PUSH3 0x461BCD PUSH1 0xE5 SHL DUP2 MSTORE PUSH1 0x20 PUSH1 0x4 DUP3 ADD MSTORE PUSH1 0xD PUSH1 0x24 DUP3 ADD MSTORE PUSH13 0x496E76616C6964206461746573 PUSH1 0x98 SHL PUSH1 0x44 DUP3 ADD MSTORE PUSH1 0x64 SWAP1 REVERT JUMPDEST PUSH1 0x40 MLOAD PUSH3 0x461BCD PUSH1 0xE5 SHL DUP2 MSTORE PUSH1 0x20 PUSH1 0x4 DUP3 ADD MSTORE PUSH1 0xF PUSH1 0x24 DUP3 ADD MSTORE PUSH15 0x125B9D985B1A59081C9BDBDB481251 PUSH1 0x8A SHL PUSH1 0x44 DUP3 ADD MSTORE PUSH1 0x64 SWAP1 REVERT JUMPDEST PUSH0 DUP1 REVERT JUMPDEST CALLVALUE PUSH2 0x56F JUMPI PUSH0 CALLDATASIZE PUSH1 0x3 NOT ADD SLT PUSH2 0x56F JUMPI CALLER PUSH0 MSTORE PUSH1 0x20 PUSH1 0x3 DUP2 MSTORE PUSH1 0x40 PUSH0 KECCAK256 PUSH1 0x40 MLOAD SWAP1 DUP2 DUP4 DUP3 SLOAD SWAP2 DUP3 DUP2 MSTORE ADD SWAP1 DUP2 SWAP3 PUSH0 MSTORE DUP5 PUSH0 KECCAK256 SWAP1 PUSH0 JUMPDEST DUP7 DUP3 DUP3 LT PUSH2 0x5FD JUMPI DUP7 DUP7 PUSH2 0x5BE DUP3 DUP9 SUB DUP4 PUSH2 0xAE4 JUMP JUMPDEST PUSH1 0x40 MLOAD SWAP3 DUP4 SWAP3 DUP2 DUP5 ADD SWAP1 DUP3 DUP6 MSTORE MLOAD DUP1 SWAP2 MSTORE PUSH1 0x40 DUP5 ADD SWAP3 SWAP2 PUSH0 JUMPDEST DUP3 DUP2 LT PUSH2 0x5E6 JUMPI POP POP POP POP SUB SWAP1 RETURN JUMPDEST DUP4 MLOAD DUP6 MSTORE DUP7 SWAP6 POP SWAP4 DUP2 ADD SWAP4 SWAP3 DUP2 ADD SWAP3 PUSH1 0x1 ADD PUSH2 0x5D7 JUMP JUMPDEST DUP4 SLOAD DUP6 MSTORE SWAP1 SWAP4 ADD SWAP3 PUSH1 0x1 SWAP3 DUP4 ADD SWAP3 ADD PUSH2 0x5A8 JUMP JUMPDEST CALLVALUE PUSH2 0x56F JUMPI PUSH0 CALLDATASIZE PUSH1 0x3 NOT ADD SLT PUSH2 0x56F JUMPI PUSH0 SLOAD PUSH1 0x40 MLOAD PUSH1 0x1 PUSH1 0x1 PUSH1 0xA0 SHL SUB SWAP1 SWAP2 AND DUP2 MSTORE PUSH1 0x20 SWAP1 RETURN JUMPDEST CALLVALUE PUSH2 0x56F JUMPI PUSH0 CALLDATASIZE PUSH1 0x3 NOT ADD SLT PUSH2 0x56F JUMPI PUSH1 0x20 SELFBALANCE PUSH1 0x40 MLOAD SWAP1 DUP2 MSTORE RETURN JUMPDEST CALLVALUE PUSH2 0x56F JUMPI PUSH0 CALLDATASIZE PUSH1 0x3 NOT ADD SLT PUSH2 0x56F JUMPI PUSH1 0x20 PUSH1 0x1 SLOAD PUSH1 0x40 MLOAD SWAP1 DUP2 MSTORE RETURN JUMPDEST CALLVALUE PUSH2 0x56F JUMPI PUSH1 0x20 CALLDATASIZE PUSH1 0x3 NOT ADD SLT PUSH2 0x56F JUMPI PUSH1 0x4 CALLDATALOAD PUSH1 0x60 PUSH2 0x120 PUSH1 0x40 MLOAD PUSH2 0x695 DUP2 PUSH2 0xAC7 JUMP JUMPDEST PUSH0 DUP2 MSTORE PUSH0 PUSH1 0x20 DUP3 ADD MSTORE PUSH0 PUSH1 0x40 DUP3 ADD MSTORE PUSH0 DUP4 DUP3 ADD MSTORE PUSH0 PUSH1 0x80 DUP3 ADD MSTORE PUSH0 PUSH1 0xA0 DUP3 ADD MSTORE PUSH0 PUSH1 0xC0 DUP3 ADD MSTORE PUSH0 PUSH1 0xE0 DUP3 ADD MSTORE PUSH0 PUSH2 0x100 DUP3 ADD MSTORE ADD MSTORE DUP1 PUSH0 MSTORE PUSH1 0x2 PUSH1 0x20 MSTORE PUSH2 0x6E1 PUSH1 0x40 PUSH0 KECCAK256 SLOAD ISZERO ISZERO PUSH2 0xBE5 JUMP JUMPDEST PUSH0 MSTORE PUSH1 0x2 PUSH1 0x20 MSTORE PUSH2 0x120 PUSH1 0x40 PUSH0 KECCAK256 PUSH2 0x768 PUSH1 0x8 PUSH1 0x40 MLOAD SWAP3 PUSH2 0x701 DUP5 PUSH2 0xAC7 JUMP JUMPDEST DUP1 SLOAD DUP5 MSTORE PUSH1 0x1 DUP2 ADD SLOAD PUSH1 0x20 DUP6 ADD MSTORE PUSH1 0x2 DUP2 ADD SLOAD PUSH1 0x40 DUP6 ADD MSTORE PUSH1 0x3 DUP2 ADD SLOAD PUSH1 0x60 DUP6 ADD MSTORE PUSH1 0x4 DUP2 ADD SLOAD PUSH1 0x80 DUP6 ADD MSTORE PUSH1 0x5 DUP2 ADD SLOAD PUSH1 0xA0 DUP6 ADD MSTORE PUSH1 0xFF PUSH1 0x6 DUP3 ADD SLOAD PUSH1 0x1 DUP1 PUSH1 0xA0 SHL SUB DUP2 AND PUSH1 0xC0 DUP8 ADD MSTORE PUSH1 0xA0 SHR AND ISZERO ISZERO PUSH1 0xE0 DUP6 ADD MSTORE PUSH1 0x7 DUP2 ADD SLOAD PUSH2 0x100 DUP6 ADD MSTORE ADD PUSH2 0xB06 JUMP JUMPDEST DUP3 DUP3 ADD MSTORE PUSH2 0x7EF PUSH1 0x40 MLOAD SWAP3 DUP4 SWAP3 PUSH1 0x20 DUP5 MSTORE DUP1 MLOAD PUSH1 0x20 DUP6 ADD MSTORE PUSH1 0x20 DUP2 ADD MLOAD PUSH1 0x40 DUP6 ADD MSTORE PUSH1 0x40 DUP2 ADD MLOAD PUSH1 0x60 DUP6 ADD MSTORE PUSH1 0x60 DUP2 ADD MLOAD PUSH1 0x80 DUP6 ADD MSTORE PUSH1 0x80 DUP2 ADD MLOAD PUSH1 0xA0 DUP6 ADD MSTORE PUSH1 0xA0 DUP2 ADD MLOAD PUSH1 0xC0 DUP6 ADD MSTORE PUSH1 0x1 DUP1 PUSH1 0xA0 SHL SUB PUSH1 0xC0 DUP3 ADD MLOAD AND PUSH1 0xE0 DUP6 ADD MSTORE PUSH1 0xE0 DUP2 ADD MLOAD ISZERO ISZERO PUSH2 0x100 DUP6 ADD MSTORE PUSH2 0x100 DUP2 ADD MLOAD DUP3 DUP6 ADD MSTORE ADD MLOAD PUSH2 0x140 DUP1 DUP5 ADD MSTORE PUSH2 0x160 DUP4 ADD SWAP1 PUSH2 0xBA7 JUMP JUMPDEST SUB SWAP1 RETURN JUMPDEST CALLVALUE PUSH2 0x56F JUMPI PUSH0 CALLDATASIZE PUSH1 0x3 NOT ADD SLT PUSH2 0x56F JUMPI PUSH0 SLOAD PUSH1 0x1 PUSH1 0x1 PUSH1 0xA0 SHL SUB AND CALLER DUP2 SWAP1 SUB PUSH2 0x874 JUMPI SELFBALANCE SWAP1 DUP2 ISZERO PUSH2 0x838 JUMPI PUSH0 DUP1 DUP1 SWAP4 DUP2 SWAP4 DUP3 CALL ISZERO PUSH2 0x82D JUMPI STOP JUMPDEST PUSH1 0x40 MLOAD RETURNDATASIZE PUSH0 DUP3 RETURNDATACOPY RETURNDATASIZE SWAP1 REVERT JUMPDEST PUSH1 0x40 MLOAD PUSH3 0x461BCD PUSH1 0xE5 SHL DUP2 MSTORE PUSH1 0x20 PUSH1 0x4 DUP3 ADD MSTORE PUSH1 0x14 PUSH1 0x24 DUP3 ADD MSTORE PUSH20 0x4E6F2066756E647320746F207769746864726177 PUSH1 0x60 SHL PUSH1 0x44 DUP3 ADD MSTORE PUSH1 0x64 SWAP1 REVERT JUMPDEST PUSH1 0x40 MLOAD PUSH3 0x461BCD PUSH1 0xE5 SHL DUP2 MSTORE PUSH1 0x20 PUSH1 0x4 DUP3 ADD MSTORE PUSH1 0x18 PUSH1 0x24 DUP3 ADD MSTORE PUSH32 0x4F6E6C79206F776E65722063616E2063616C6C20746869730000000000000000 PUSH1 0x44 DUP3 ADD MSTORE PUSH1 0x64 SWAP1 REVERT JUMPDEST CALLVALUE PUSH2 0x56F JUMPI PUSH1 0x20 CALLDATASIZE PUSH1 0x3 NOT ADD SLT PUSH2 0x56F JUMPI PUSH1 0x4 CALLDATALOAD PUSH0 MSTORE PUSH1 0x2 PUSH1 0x20 MSTORE PUSH1 0x40 PUSH0 KECCAK256 DUP1 SLOAD PUSH2 0x7EF PUSH1 0x1 DUP4 ADD SLOAD SWAP3 PUSH1 0x2 DUP2 ADD SLOAD SWAP1 PUSH1 0xFF PUSH1 0x3 DUP3 ADD SLOAD PUSH1 0x4 DUP4 ADD SLOAD PUSH1 0x5 DUP5 ADD SLOAD SWAP1 PUSH1 0x6 DUP6 ADD SLOAD SWAP3 PUSH2 0x912 PUSH1 0x8 PUSH1 0x7 DUP9 ADD SLOAD SWAP8 ADD PUSH2 0xB06 JUMP JUMPDEST SWAP7 PUSH1 0x40 MLOAD SWAP11 DUP12 SWAP11 DUP12 MSTORE PUSH1 0x20 DUP12 ADD MSTORE PUSH1 0x40 DUP11 ADD MSTORE PUSH1 0x60 DUP10 ADD MSTORE PUSH1 0x80 DUP9 ADD MSTORE PUSH1 0xA0 DUP8 ADD MSTORE PUSH1 0x1 DUP1 PUSH1 0xA0 SHL SUB DUP2 AND PUSH1 0xC0 DUP8 ADD MSTORE PUSH1 0xA0 SHR AND ISZERO ISZERO PUSH1 0xE0 DUP6 ADD MSTORE PUSH2 0x100 DUP5 ADD MSTORE PUSH2 0x140 DUP1 PUSH2 0x120 DUP6 ADD MSTORE DUP4 ADD SWAP1 PUSH2 0xBA7 JUMP JUMPDEST CALLVALUE PUSH2 0x56F JUMPI PUSH1 0x20 SWAP1 DUP2 PUSH1 0x3 NOT CALLDATASIZE ADD SLT PUSH2 0x56F JUMPI PUSH1 0x4 CALLDATALOAD PUSH0 DUP2 DUP2 MSTORE PUSH1 0x2 DUP5 MSTORE PUSH1 0x40 SWAP1 KECCAK256 PUSH1 0x6 ADD SLOAD SWAP1 SWAP2 SWAP1 PUSH1 0x1 PUSH1 0x1 PUSH1 0xA0 SHL SUB AND CALLER SUB PUSH2 0xA5A JUMPI POP DUP1 PUSH0 MSTORE PUSH1 0x2 DUP3 MSTORE PUSH2 0x9B4 PUSH1 0x40 PUSH0 KECCAK256 SLOAD ISZERO ISZERO PUSH2 0xBE5 JUMP JUMPDEST DUP1 PUSH0 MSTORE PUSH1 0x2 DUP3 MSTORE PUSH1 0xFF PUSH1 0x6 PUSH1 0x40 PUSH0 KECCAK256 ADD SLOAD PUSH1 0xA0 SHR AND ISZERO PUSH2 0xA15 JUMPI PUSH0 DUP2 DUP2 MSTORE PUSH1 0x2 DUP4 MSTORE PUSH1 0x40 SWAP1 DUP2 SWAP1 KECCAK256 PUSH1 0x6 ADD DUP1 SLOAD PUSH1 0xFF PUSH1 0xA0 SHL NOT AND SWAP1 SSTORE MLOAD TIMESTAMP DUP2 MSTORE CALLER SWAP3 PUSH32 0x1B6CB622CE03BEAF3E0C44CB4253AF7C70BB84B7E3711229B33CC2EC4C613C8E SWAP2 LOG3 STOP JUMPDEST PUSH1 0x40 MLOAD PUSH3 0x461BCD PUSH1 0xE5 SHL DUP2 MSTORE PUSH1 0x4 DUP2 ADD DUP4 SWAP1 MSTORE PUSH1 0x19 PUSH1 0x24 DUP3 ADD MSTORE PUSH32 0x426F6F6B696E6720616C72656164792063616E63656C6C656400000000000000 PUSH1 0x44 DUP3 ADD MSTORE PUSH1 0x64 SWAP1 REVERT JUMPDEST PUSH3 0x461BCD PUSH1 0xE5 SHL DUP2 MSTORE PUSH1 0x4 DUP2 ADD DUP4 SWAP1 MSTORE PUSH1 0x10 PUSH1 0x24 DUP3 ADD MSTORE PUSH16 0x4E6F7420796F757220626F6F6B696E67 PUSH1 0x80 SHL PUSH1 0x44 DUP3 ADD MSTORE PUSH1 0x64 SWAP1 REVERT JUMPDEST SWAP1 PUSH1 0x1 DUP3 DUP2 SHR SWAP3 AND DUP1 ISZERO PUSH2 0xABD JUMPI JUMPDEST PUSH1 0x20 DUP4 LT EQ PUSH2 0xAA9 JUMPI JUMP JUMPDEST PUSH4 0x4E487B71 PUSH1 0xE0 SHL PUSH0 MSTORE PUSH1 0x22 PUSH1 0x4 MSTORE PUSH1 0x24 PUSH0 REVERT JUMPDEST SWAP2 PUSH1 0x7F AND SWAP2 PUSH2 0xA9E JUMP JUMPDEST PUSH2 0x140 DUP2 ADD SWAP1 DUP2 LT PUSH8 0xFFFFFFFFFFFFFFFF DUP3 GT OR PUSH2 0x35A JUMPI PUSH1 0x40 MSTORE JUMP JUMPDEST SWAP1 PUSH1 0x1F DUP1 NOT SWAP2 ADD AND DUP2 ADD SWAP1 DUP2 LT PUSH8 0xFFFFFFFFFFFFFFFF DUP3 GT OR PUSH2 0x35A JUMPI PUSH1 0x40 MSTORE JUMP JUMPDEST SWAP1 PUSH1 0x40 MLOAD SWAP2 DUP3 PUSH0 DUP3 SLOAD SWAP3 PUSH2 0xB19 DUP5 PUSH2 0xA8F JUMP JUMPDEST SWAP1 DUP2 DUP5 MSTORE PUSH1 0x1 SWAP5 DUP6 DUP2 AND SWAP1 DUP2 PUSH0 EQ PUSH2 0xB84 JUMPI POP PUSH1 0x1 EQ PUSH2 0xB44 JUMPI JUMPDEST POP POP PUSH2 0xB42 SWAP3 POP SUB DUP4 PUSH2 0xAE4 JUMP JUMPDEST JUMP JUMPDEST SWAP1 SWAP4 SWAP2 POP PUSH0 MSTORE PUSH1 0x20 SWAP1 DUP2 PUSH0 KECCAK256 SWAP4 PUSH0 SWAP2 JUMPDEST DUP2 DUP4 LT PUSH2 0xB6C JUMPI POP POP PUSH2 0xB42 SWAP4 POP DUP3 ADD ADD PUSH0 DUP1 PUSH2 0xB34 JUMP JUMPDEST DUP6 SLOAD DUP9 DUP5 ADD DUP6 ADD MSTORE SWAP5 DUP6 ADD SWAP5 DUP8 SWAP5 POP SWAP2 DUP4 ADD SWAP2 PUSH2 0xB54 JUMP JUMPDEST SWAP2 POP POP PUSH2 0xB42 SWAP5 POP PUSH1 0x20 SWAP3 POP PUSH1 0xFF NOT AND DUP3 DUP5 ADD MSTORE ISZERO ISZERO PUSH1 0x5 SHL DUP3 ADD ADD PUSH0 DUP1 PUSH2 0xB34 JUMP JUMPDEST SWAP2 SWAP1 DUP3 MLOAD SWAP3 DUP4 DUP3 MSTORE PUSH0 JUMPDEST DUP5 DUP2 LT PUSH2 0xBD1 JUMPI POP POP DUP3 PUSH0 PUSH1 0x20 DUP1 SWAP5 SWAP6 DUP5 ADD ADD MSTORE PUSH1 0x1F DUP1 NOT SWAP2 ADD AND ADD ADD SWAP1 JUMP JUMPDEST PUSH1 0x20 DUP2 DUP4 ADD DUP2 ADD MLOAD DUP5 DUP4 ADD DUP3 ADD MSTORE ADD PUSH2 0xBB1 JUMP JUMPDEST ISZERO PUSH2 0xBEC JUMPI JUMP JUMPDEST PUSH1 0x40 MLOAD PUSH3 0x461BCD PUSH1 0xE5 SHL DUP2 MSTORE PUSH1 0x20 PUSH1 0x4 DUP3 ADD MSTORE PUSH1 0x11 PUSH1 0x24 DUP3 ADD MSTORE PUSH17 0x109BDBDADA5B99C81B9BDD08199BDD5B99 PUSH1 0x7A SHL PUSH1 0x44 DUP3 ADD MSTORE PUSH1 0x64 SWAP1 REVERT INVALID LOG2 PUSH5 0x6970667358 0x22 SLT KECCAK256 DUP6 SWAP10 ADD DUP8 0xC1 0xE6 PUSH17 0xCFE473557596E3CB5FC46193104920C67B SWAP12 0x1F 0xB1 0xC7 BALANCE PUSH26 0x47A264736F6C6343000814003300000000000000000000000000 "},"methodIdentifiers":{"bookRoom(uint256,uint256,uint256,uint256,string)":"f5329bcb","bookingCount()":"6d759172","bookings(uint256)":"1dab301e","cancelBooking(uint256)":"0dca825e","getBooking(uint256)":"6a5c841a","getContractBalance()":"6f9fb98a","getMyBookingIds()":"d35987fa","owner()":"8da5cb5b","withdraw()":"3ccfd60b"}}}}}